:100000000C94B3000C94D4000C94D4000C94D40041
:100010000C94D4000C94D4000C94D4000C94D40010
:100020000C94D4000C94D4000C94D4000C94D40000
:100030000C94D4000C94D4000C94D4000C94D400F0
:100040000C94D4000C94D4000C94D4000C94D400E0
:100050000C94D4000C94D4000C94D4000C94D400D0
:100060000C94D4000C94D6000C94D4000C94D400BE
:100070000C94D4000C94D4000C94D4000C94D400B0
:100080000C94D4000C94D4000C94D4000C94D400A0
:100090000C94D4000C94D4000C94D4000C94D40090
:1000A0000C94D4000C94D4000C94D4000C94D40080
:1000B0000C94D4000C94D4000C94D4000C94D40070
:1000C0000C94D4000C94D4000C94D4000C94D40060
:1000D0000C94D4000C94D4000C94D4000C94D40050
:1000E0000C94D40007634236B79BD8A71A396856D8
:1000F00018AEBAAB558C1D3CB7CC5763BD6DEDFD4A
:10010000753EF6177231BF000000803F0800000006
:10011000BE922449123EABAAAA2ABECDCCCC4C3EFC
:1001200000000080BEABAAAAAA3E00000000BF00EB
:100130000000803F0000000000084178D3BB4387E7
:10014000D1133D190E3CC3BD4282AD2B3E68EC82FB
:1001500076BED98FE1A93E4C80EFFFBE01C4FF7F80
:100160003F000000000011241FBECFEFD1E2DEBF30
:10017000CDBF00E00CBF13E0A0E0B2E0E0E1F9E1A8
:1001800000E00BBF02C007900D92AA30B107D9F76B
:1001900013E0AAE0B3E001C01D92A832B107E1F775
:1001A0000E9492040C94860C0C9400001F920F92F3
:1001B0000FB60F920BB60F9211248F939F93EF936C
:1001C000FF93F894E6ECF0E0808190E0C097909384
:1001D0001D0380931C0380837894FF91EF919F917E
:1001E0008F910F900BBE0F900FBE0F901F90189520
:1001F00081B18F6081B982B1807F82B9EAE0F1E09C
:10020000808188618083EBE0F1E080818861808378
:100210000895E1ECF0E010821092C00086E0809337
:10022000C2008FE58093C4001092C50088E98083E6
:10023000089592B1907F8F70892B82B9089582B111
:10024000807F866082B9089582B1807F896082B99B
:10025000089582B1807F856082B9089582B1807FE0
:100260008A6082B9089582B1807F846082B90895DE
:1002700082B1807F826082B9089582B1807F81607F
:1002800082B9089582B1807F886082B9089582B171
:10029000807F82B90895E1E2F1E010829FEF9093B0
:1002A000250181E080932401109229019093280177
:1002B00010922B0190932A0110922D0190932C0102
:1002C00089EA809320018BE0808308958093280140
:1002D00060932A0108958F3F910514F08FEF90E00D
:1002E0008093280108958F3F910514F08FEF90E0DF
:1002F00080932A01089510BA11BA10920701109242
:100300000801089510BA11BA10920701109208015D
:100310000895EAE7F0E0108210927B0080E280937B
:100320007C0080E880BF86E880830895982F88301D
:1003300018F088E080937B009770906290937C0027
:1003400080917A00806480937A0080917A0084FFA3
:10035000FCCF8091790090917A00906190937A001F
:1003600010927B00089510BA11BA8FE081B912B8CB
:1003700088E180930A0180930B018FEF87B918B849
:100380001092040180930501089510BA11BA8FE00C
:1003900081B912B888E180930A0180930B018FEF35
:1003A00087B918B8109204018093050108958AEF67
:1003B00090E0FC013197F1F74098419840E348B94B
:1003C000429A22EE34E0F9013197F1F74298FC01AC
:1003D0003197F1F74098419848B9429AF90131971D
:1003E000F1F74298FC013197F1F74098419848B9EC
:1003F000429AF9013197F1F742980197F1F7409845
:10040000419880E288B9429AC9010197F1F7429870
:10041000089598B19F7098B928B1982F907F922B2A
:1004200098B940984198429A22EE34E0F901319708
:10043000F1F7429898B19F7098B998B18295807FF2
:10044000982B98B940984198429AC9010197F1F7C1
:10045000429808958AEF90E00197F1F788E20E94B0
:10046000090281E00E94090286E00E9409028EE0F2
:100470000E94090280E80E9409020895F89481B15F
:100480008F6081B982B1807F82B92AE031E0F901C1
:10049000808188618083ABE0B1E08C9188618C932E
:1004A00010BA11BA1092070110920801EAE7F0E0C1
:1004B000108210927B0080E280937C0080E880BFF5
:1004C00086E88083E1E2F1E010829FEF90932501BE
:1004D00081E08093240110922901909328011092C9
:1004E0002B0190932A0110922D0190932C0189EAFF
:1004F000809320018BE0808310BA11BA8FE081B91C
:1005000012B888E1F90180838C9397B918B81092DA
:100510000401909305010E942A020E94D7011092C3
:100520001D0310921C03E1ECF0E010821092C00059
:1005300086E08093C2008FE58093C4001092C500CE
:1005400088E980833B9A18B87894089598B19F7091
:1005500098B928B1982F907F922B98B9409A4198DA
:10056000429A22EE34E0F9013197F1F7429898B1BE
:100570009F7098B998B18295807F982B98B9409ACE
:100580004198429AC9010197F1F74298089580E88D
:100590000E9409020895CF93DF93EC0103C00E94EB
:1005A000A602219688818823D1F7DF91CF91089503
:1005B000823069F0833018F48130A9F405C08330AB
:1005C00049F0843081F40BC0862F815805C0862FF6
:1005D000815402C0862F8D560E9409020895862FED
:1005E0008D520E94090208950F931F93CF93DF93BA
:1005F0008A01E901882311F0662319F40E94C702D9
:1006000002C00E94D802C530D10571F4C80160E172
:1006100077E20E94AC09CB01C096909318038093B7
:1006200017030E94A60205C0C430D10511F080E076
:1006300016C0C80168EE73E00E94AC09CB0160935C
:10064000190390931A036AE070E00E94AC09C09607
:1006500090932703809326030E94A60281E0C33073
:10066000D10521F0813011F080E016C0C80164E6A8
:1006700070E00E94AC09CB016093190390931A03B8
:100680006AE070E00E94AC09C096909323038093C7
:1006900022030E94A60281E0C230D10521F0813000
:1006A00011F080E016C0C8016AE070E00E94AC0959
:1006B000CB016093190390931A036AE070E00E94E3
:1006C000AC09C09690932103809320030E94A60258
:1006D00081E0C130D10511F0813061F4C8016AE0D8
:1006E00070E00E94AC09C096909325038093240388
:1006F0000E94A60226971CF085E40E94A602DF91C4
:10070000CF911F910F910895AC0181E061E024E049
:1007100030E00E94F4020895AC0182E061E024E040
:1007200030E00E94F40208953B9A18B8089580E0E2
:1007300090E031E2232F2A95F1F701968A30910556
:10074000C9F70895439A80E090E031E2232F2A957B
:10075000F1F701968A309105C9F74398089518B8C2
:1007600080E090E031E2232F2A95F1F701968A305C
:100770009105C9F7089520910E03216020930E037F
:100780009093100380930F03089580910E038E7F42
:1007900080930E0380E090E008958F3F910514F060
:1007A0008FEF90E080932A0108958F3F910514F018
:1007B0008FEF90E0809328010895809100022091AE
:1007C0000E03882321F0217E20930E0363C020FFB7
:1007D00061C01092000280910F03909110039093DA
:1007E0001603809315038130910539F486E990E072
:1007F00090931203809311033AC08230910539F42B
:1008000082E890E090931203809311033EC08330FE
:10081000910539F4109212031092110382E890E0CE
:1008200026C08430910561F486E990E0909312032C
:100830008093110390931403809313032C611CC0C5
:100840008530910549F486E990E0909312038093F6
:10085000110386E490E00BC08630910581F486E4B4
:1008600090E0909312038093110386E990E09093B7
:100870001403809313032A6120930E030DC007977E
:1008800059F4109212031092110310921403109253
:100890001303F1CF1092000290910E0391FF07C055
:1008A00082B1807F866082B99D7F90930E03909184
:1008B0000E0392FF07C082B1807F896082B99B7F5F
:1008C00090930E0380910E0383FF0BC08091110360
:1008D000909112030E94D50380910E03877F80932D
:1008E0000E0380910E0384FF0BC08091130390913F
:1008F00014030E94CD0380910E038F7E80930E031C
:1009000080910E038E7F80930E0381E090E0089526
:1009100082B1807F896082B9089582B1807F8660CC
:1009200082B908950E943E0280910E038E7F8093CB
:100930000E030E94DD0320911C0330911D03809162
:100940000E03816080930E033093100320930F03F6
:10095000F0CFCF93DF93DC010D900020E9F71197E2
:10096000A81BB90BAD0141505040EC01FC01EA0F4E
:10097000FB1F20E030E008C098818081899390833C
:100980002F5F3F4F41505040319724173507A4F354
:10099000DF91CF910895EF92FF920F931F93CF9322
:1009A000DF938C017B019C0197FF04C02227332732
:1009B000281B390BC0E0D0E0F701EC0FFD1FC90187
:1009C0006AE070E00E94C009805D80832196C901C1
:1009D0006AE070E00E94C0099B011616170664F3D6
:1009E00017FF06C0F701EC0FFD1F8DE280832196F3
:1009F000CE0DDF1D1882C7010E94A904DF91CF919F
:100A00001F910F91FF90EF90089590E0A0E0B0E06B
:100A1000BC01CD010E9497072FEE39EC43E95FE35B
:100A20000E940A0A9B01AC0160E070E080E89FE34D
:100A30000E9439062AE939EF4EE255E40E943F054B
:100A400020E030E040E251E40E943F050E9443076D
:100A5000882777FD8095982F0E94E5060E9443071E
:100A60009B0183E06132780710F020E233E0C90196
:100A700008958BE00E9496010E9405050895A0E26A
:100A8000B0E0E5E4F5E00C94D30969837A838B83C5
:100A90009C832D833E834F835887CE010196BE01F0
:100AA000675F7F4F0E943409CE010596BE016F5EDD
:100AB0007F4F0E9434099985923088F0898982306D
:100AC000C8F0943019F4823051F404C0843029F411
:100AD000923081F481E092E0C6C0923049F420E087
:100AE0009A858A89981321E02A87CE010996BBC08E
:100AF000823049F420E09A858A89981321E02A8B74
:100B0000CE014196B0C02D843E844F8458886D88B4
:100B10007E888F88988CEE24FF248701AA24BB242A
:100B2000650140E050E060E070E0E0E0F0E0C1012D
:100B300081709070892BE9F0E60CF71C081D191DD7
:100B40009A01AB012A0D3B1D4C1D5D1D80E090E01C
:100B5000A0E0B0E0E614F7040805190520F481E0F0
:100B600090E0A0E0B0E0BA01A901480F591F6A1F48
:100B70007B1FAA0CBB1CCC1CDD1C97FE08C081E0AF
:100B800090E0A0E0B0E0A82AB92ACA2ADB2A319670
:100B9000E032F10549F0660C771C881C991C5694CC
:100BA000479437942794C3CFFA85EA892B893C89E7
:100BB0008B859C85280F391F2E5F3F4F17C0CA01B8
:100BC00081709070892B61F016950795F794E794E2
:100BD00080E090E0A0E0B0E8E82AF92A0A2B1B2B7D
:100BE00076956795579547952F5F3F4F77FDE7CFF0
:100BF0000CC0440F551F661F771F17FD4160EE0C98
:100C0000FF1C001F111F21503040403090E0590759
:100C100090E0690790E4790760F32B8F3C8FDB014C
:100C2000CA018F779070A070B07080349105A105D3
:100C3000B10561F447FD0AC0E114F1040105110595
:100C400029F0405C5F4F6F4F7F4F40781A8EFE1740
:100C500011F081E08A8F4D8F5E8F6F8F78A383E0D4
:100C6000898FCE0149960E945F08A096E2E10C941C
:100C7000EF09A8E1B0E0EFE3F6E00C94DB0969834B
:100C80007A838B839C832D833E834F835887B9E07F
:100C9000EB2EF12CEC0EFD1ECE010196B7010E9449
:100CA00034098E010F5E1F4FCE010596B8010E94D8
:100CB00034092985223008F47EC03989323010F495
:100CC000B8017CC08A859A8989278A87243011F0E7
:100CD000223031F4231709F06EC061E072E06EC07B
:100CE000343039F41D861E861F86188A1C861B86A2
:100CF00004C0323021F484E08987B7015FC02B85BE
:100D00003C858B899C89281B390B3C872B87ED847C
:100D1000FE840F851889AD88BE88CF88D88CEA14E8
:100D2000FB040C051D0540F4EE0CFF1C001F111FF9
:100D3000215030403C872B8720E030E040E050E0FD
:100D400080E090E0A0E0B0E460E070E0EA14FB0432
:100D50000C051D0540F0282B392B4A2B5B2BEA187C
:100D6000FB080C091D09B695A79597958795EE0C7C
:100D7000FF1C001F111F6F5F7F4F6F31710531F72F
:100D8000DA01C9018F779070A070B070803491053E
:100D9000A105B10561F427FD0AC0E114F1040105C4
:100DA000110529F0205C3F4F4F4F5F4F20782D8772
:100DB0003E874F87588BBE01675F7F4FCB010E94F4
:100DC0005F086896EAE00C94F709A8E0B0E0EBEE63
:100DD000F6E00C94DC099B01AC0183E08983DA0125
:100DE000C9018827B7FD83959927AA27BB27B82E65
:100DF000211531054105510519F482E089833AC076
:100E00008823A9F0203080E0380780E0480780E898
:100E1000580729F460E070E080E09FEC30C0EE24D9
:100E2000FF248701E21AF30A040B150B02C07901B3
:100E30008A018EE1C82ED12CDC82CB82ED82FE822B
:100E40000F831887C801B7010E9410080197181670
:100E5000190684F4082E04C0EE0CFF1C001F111F9D
:100E60000A94D2F7ED82FE820F831887C81AD90A36
:100E7000DC82CB82BA82CE0101960E945F0828965E
:100E8000E9E00C94F809ACE0B0E0E9E4F7E00C9498
:100E9000E30969837A838B839C83CE010196BE012B
:100EA0006B5F7F4F0E9434098D81823061F1823007
:100EB00050F1843021F48E81882351F12EC02F818E
:100EC000388537FD20C06E812F3131051CF0662337
:100ED000F9F023C08EE190E0821B930B29853A85BF
:100EE0004B855C8504C056954795379527958A951F
:100EF000D2F76623B1F050954095309521953F4F3C
:100F00004F4F5F4F0EC020E030E040E050E009C09E
:100F10002FEF3FEF4FEF5FE704C020E030E040E00D
:100F200050E8B901CA012C96E2E00C94FF09A8E050
:100F3000B0E0EDE9F7E00C94DB097B018C01611571
:100F400071058105910519F482E0898360C083E011
:100F500089838EE1C82ED12CDC82CB82ED82FE8289
:100F60000F831887C801B7010E941008FC01319750
:100F7000F7FF3BC0222733272E1B3F0B5701680189
:100F8000022E04C0D694C794B794A7940A94D2F7BB
:100F900040E050E060E070E081E090E0A0E0B0E090
:100FA00004C0880F991FAA1FBB1F2A95D2F701976B
:100FB000A109B1098E219F21A023B1230097A1058A
:100FC000B10521F041E050E060E070E04A295B2982
:100FD0006C297D294D835E836F8378878EE190E055
:100FE0008E1B9F0B9C838B8312C0309781F00E2E3B
:100FF00004C0EE0CFF1C001F111F0A94D2F7ED82F3
:10100000FE820F831887CE1ADF0ADC82CB821A8217
:10101000CE0101960E945F082896EAE00C94F70939
:10102000EF92FF920F931F937B018C0180E0E816F3
:1010300080E0F80681E0080780E0180788F48FEF69
:10104000E816F1040105110531F028F088E090E080
:10105000A0E0B0E017C080E090E0A0E0B0E012C0F7
:1010600080E0E81680E0F80680E0080781E01807D5
:1010700028F088E190E0A0E0B0E004C080E190E0DA
:10108000A0E0B0E020E230E040E050E0281B390B67
:101090004A0B5B0B04C016950795F794E7948A9565
:1010A000D2F7F701E75FFD4F8081281B3109410925
:1010B0005109C9011F910F91FF90EF900895DF92A0
:1010C000EF92FF920F931F93FC01E480F58006815D
:1010D0001781D1808081823048F480E090E0A0E1E7
:1010E000B0E0E82AF92A0A2B1B2BA5C0843009F4AA
:1010F0009FC0823021F4EE24FF24870105C0E11453
:10110000F1040105110519F4E0E0F0E096C06281F8
:1011100073819FEF623879070CF05BC022E83FEFE4
:10112000261B370B2A3131052CF020E030E040E05F
:1011300050E02AC0B801A701022E04C07695679539
:10114000579547950A94D2F781E090E0A0E0B0E08F
:1011500004C0880F991FAA1FBB1F2A95D2F70197B9
:10116000A109B1098E219F21A023B1230097A105D8
:10117000B10521F081E090E0A0E0B0E09A01AB0180
:10118000282B392B4A2B5B2BDA01C9018F77907002
:10119000A070B07080349105A105B10539F427FF26
:1011A00009C0205C3F4F4F4F5F4F04C0215C3F4F51
:1011B0004F4F5F4FE0E0F0E02030A0E03A07A0E0C2
:1011C0004A07A0E45A0710F0E1E0F0E079018A0153
:1011D00027C06038710564F5FB01E158FF4FD80165
:1011E000C7018F779070A070B07080349105A10511
:1011F000B10539F4E7FE0DC080E490E0A0E0B0E076
:1012000004C08FE390E0A0E0B0E0E80EF91E0A1FF2
:101210001B1F17FF05C016950795F794E7943196A5
:1012200087E016950795F794E7948A95D1F705C05E
:10123000EE24FF248701EFEFF0E06E2F679566271D
:101240006795902F9F77D794DD24D7948E2F86951E
:10125000492F462B582F5D29B701CA011F910F91C5
:10126000FF90EF90DF900895FC01DB0140815181F8
:101270002281622F6F7770E0221F2227221F938125
:10128000892F880F822B282F30E0991F9927991FCB
:1012900011969C93119721153105A9F5411551051A
:1012A0006105710511F482E037C082E89FEF139663
:1012B0009C938E9312979A01AB0167E0220F331F24
:1012C000441F551F6A95D1F783E08C930DC0220F00
:1012D000331F441F551F12968D919C9113970197B0
:1012E00013969C938E931297203080E0380780E00D
:1012F000480780E4580758F314962D933D934D9377
:101300005C93179708952F3F310579F441155105E6
:101310006105710519F484E08C93089564FF03C09E
:1013200081E08C9312C01C9210C02F57304013964E
:101330003C932E93129783E08C9387E0440F551FC4
:10134000661F771F8A95D1F7706414964D935D934D
:101350006D937C9317970895AA1BBB1B51E107C09F
:10136000AA1FBB1FA617B70710F0A61BB70B881F35
:10137000991F5A95A9F780959095BC01CD010895C4
:1013800097FB092E07260AD077FD04D0E5DF06D0AB
:1013900000201AF4709561957F4F0895F6F79095A7
:1013A00081959F4F08952F923F924F925F926F9237
:1013B0007F928F929F92AF92BF92CF92DF92EF92E5
:1013C000FF920F931F93CF93DF93CDB7DEB7CA1B66
:1013D000DB0B0FB6F894DEBF0FBECDBF19942A8881
:1013E000398848885F846E847D848C849B84AA8439
:1013F000B984C884DF80EE80FD800C811B81AA81C6
:10140000B981CE0FD11D0FB6F894DEBF0FBECDBF90
:10141000ED010895FA01EE0FFF1F30962105310509
:1014200099F16115710561F48038BFE39B0749F1BB
:1014300068949038810561F08038BFEF9B0741F0D8
:10144000992342F5FF3FE1053105210511F1E894AB
:101450000894E795D901AA2329F4AB2FBE2FF85F92
:10146000D0F310C0FF5F70F4A695E0F7F73950F0A5
:1014700019F0FF3A38F49F779F930CD00F9007FC38
:10148000905808953EF049C060E070E080E89FE326
:1014900008954FE79F775F934F933F932F93D0D05B
:1014A0002F913F914F915F91EADA05C019F40EF048
:1014B0002EC07DC032C061D0C8F39638C0F707F89F
:1014C0000F92E8942BE33AEA48EB5FE738D10F92AA
:1014D0000F920F924DB75EB70F92F2D0E4EEF0E0AC
:1014E0001FD04F915F91EF91FF91E595EE1FFF1F88
:1014F00049F0FE57E0684427EE0F441FFA95E1F7E4
:101500004195550B64D00F9007FE58C0089597F988
:101510009F6780E870E060E008959FEF80EC089599
:10152000DF93CF931F930F93FF92EF92DF927B0194
:101530008C01689405C0DA2EEF01FFD0FE01E8941B
:10154000A5912591359145915591AEF3EF015ED16D
:10155000FE019701A801DA9479F7DF90EF90FF90F0
:101560000F911F91CF91DF91089557FD9058440F2F
:10157000551F59F05F3F71F04795880F97FB991FF2
:1015800061F09F3F79F087950895121613061406AF
:10159000551FF2CF4695F1DF08C01616170618063C
:1015A000991FF1CF86957105610508940895E89417
:1015B000BB2766277727CB0197F908959B01AC01DC
:1015C00060E070E080E89FE354CBA1CF72C1D5DF2B
:1015D000E8F39923D9F3940F511DBBF39150504078
:1015E00094F059F0882332F0660F771F881F9150CE
:1015F0005040C1F79E3F510544F7880F911D9695C5
:10160000879597F908955F3FACF0983E9CF0BB2713
:10161000869577956795B79508F4B1609395C1F76E
:10162000BB0F58F711F460FFE8CF6F5F7F4F8F4F0C
:101630009F4FE3CFBDCF0EF03CC16FCF689467CF13
:101640009CDFC8F39923D1F3C6F3DF93CF931F93A5
:101650000F93FF92C92FDD2788232AF02197660F69
:10166000771F881FDAF720E030E040E85FEB9FE368
:10167000883920F0803E30F021968F77B6D0ECE0AC
:10168000F1E003C0B2D0E9E3F1E04ADF8B01BE0133
:10169000EC01FB2E6F5771097595771F880B990B1D
:1016A00094DB28E132E741E35FE347D0AF2D9801B7
:1016B000AE01FF900F911F91CF91DF91A7D015C17F
:1016C000FA01DC01AA0FBB1F9B01AC01BF5728F434
:1016D00022273327442750781FC0B75188F4AB2FF7
:1016E0000024469537952795011CA395D2F3002039
:1016F00069F0220F331F441FB395DAF30DD074C085
:1017000061307105A0E88A07B94630F49B01AC014D
:101710006627772788279078309621F020833183B9
:10172000428353830895D3D028F0D8D018F095235E
:1017300009F0EDCEF2CE11243BCF17DFA0F3959F39
:10174000D1F3950F50E0551F629FF001729FBB27A8
:10175000F00DB11D639FAA27F00DB11DAA1F649F54
:101760006627B00DA11D661F829F2227B00DA11D07
:10177000621F739FB00DA11D621F839FA00D611D8D
:10178000221F749F3327A00D611D231F849F600DAE
:10179000211D822F762F6A2F11249F5750408AF0E7
:1017A000E1F088234AF0EE0FFF1FBB1F661F771F73
:1017B000881F91505040A9F79E3F510570F0A7CE69
:1017C000F7CE5F3FECF3983EDCF38695779567950F
:1017D000B795F795E7959F5FC1F7FE2B880F911D91
:1017E0009695879597F908955058BB27AA270ED04C
:1017F0007CC06DD030F072D020F031F49F3F11F4F6
:101800001EF48BCE0EF4E095E7FB81CEE92FADDE22
:1018100080F3BA17620773078407950718F071F40D
:101820009EF5C5CE0EF4E0950B2EBA2FA02D0B0120
:10183000B90190010C01CA01A0011124FF27591B15
:1018400099F0593F50F4503E68F11A16F040A22F1B
:10185000232F342F4427585FF3CF4695379527958C
:10186000A795F0405395C9F77EF41F16BA0B620B8B
:10187000730B840BBAF09150A1F0FF0FBB1F661FD2
:10188000771F881FC2F70EC0BA0F621F731F841F15
:1018900048F4879577956795B795F7959E3F08F03B
:1018A000B3CF9395880F08F09927EE0F97958795FA
:1018B00008959F3F31F0915020F487957795679573
:1018C000B795880F911D9695879597F908950024EF
:1018D0000A941616170618060906089500240A9495
:1018E00012161306140605060895092E0394000C1B
:1018F00011F4882352F0BB0F40F4BF2B11F460FFAA
:1019000004C06F5F7F4F8F4F9F4F0895F894FFCFB4
:1019100001000000000000000000010202030303B8
:101920000304040404040404040505050505050571
:101930000505050505050505050606060606060650
:101940000606060606060606060606060606060637
:101950000606060606060606060707070707070720
:101960000707070707070707070707070707070707
:1019700007070707070707070707070707070707F7
:1019800007070707070707070707070707070707E7
:1019900007070707070707070708080808080808D0
:1019A00008080808080808080808080808080808B7
:1019B00008080808080808080808080808080808A7
:1019C0000808080808080808080808080808080897
:1019D0000808080808080808080808080808080887
:1019E0000808080808080808080808080808080877
:1019F0000808080808080808080808080808080867
:101A00000808080808080808080808080808080856
:0A1A10000808080808080808080084
:00000001FF
